{
  "contractName": "Companies",
  "abi": [
    {
      "constant": true,
      "inputs": [],
      "name": "companyCount",
      "outputs": [
        {
          "name": "",
          "type": "uint256"
        }
      ],
      "payable": false,
      "stateMutability": "view",
      "type": "function"
    },
    {
      "inputs": [],
      "payable": false,
      "stateMutability": "nonpayable",
      "type": "constructor"
    },
    {
      "constant": false,
      "inputs": [
        {
          "name": "name",
          "type": "string"
        },
        {
          "name": "_wallet",
          "type": "address"
        }
      ],
      "name": "addCompany",
      "outputs": [],
      "payable": false,
      "stateMutability": "nonpayable",
      "type": "function"
    }
  ],
  "bytecode": "0x608060405234801561001057600080fd5b5060006001819055506103d1806100286000396000f3fe608060405234801561001057600080fd5b50600436106100365760003560e01c806338f032691461003b5780638e75dd4714610057575b600080fd5b6100556004803603610050919081019061025e565b610075565b005b61005f61014a565b60405161006c91906102c1565b60405180910390f35b600060405180604001604052808481526020018373ffffffffffffffffffffffffffffffffffffffff168152509080600181540180825580915050906001820390600052602060002090600202016000909192909190915060008201518160000190805190602001906100e9929190610150565b5060208201518160010160006101000a81548173ffffffffffffffffffffffffffffffffffffffff021916908373ffffffffffffffffffffffffffffffffffffffff1602179055505050506001600081548092919060010191905055505050565b60015481565b828054600181600116156101000203166002900490600052602060002090601f016020900481019282601f1061019157805160ff19168380011785556101bf565b828001600101855582156101bf579182015b828111156101be5782518255916020019190600101906101a3565b5b5090506101cc91906101d0565b5090565b6101f291905b808211156101ee5760008160009055506001016101d6565b5090565b90565b60008135905061020481610380565b92915050565b600082601f83011261021b57600080fd5b813561022e61022982610309565b6102dc565b9150808252602083016020830185838301111561024a57600080fd5b610255838284610371565b50505092915050565b6000806040838503121561027157600080fd5b600083013567ffffffffffffffff81111561028b57600080fd5b6102978582860161020a565b92505060206102a8858286016101f5565b9150509250929050565b6102bb81610367565b82525050565b60006020820190506102d660008301846102b2565b92915050565b6000604051905081810181811067ffffffffffffffff821117156102ff57600080fd5b8060405250919050565b600067ffffffffffffffff82111561032057600080fd5b601f19601f8301169050602081019050919050565b600061034082610347565b9050919050565b600073ffffffffffffffffffffffffffffffffffffffff82169050919050565b6000819050919050565b82818337600083830152505050565b61038981610335565b811461039457600080fd5b5056fea265627a7a72305820d6f03989a9f2db3e9482c32c07b620fabf9f0023b51deaaf21ee5e362fcadb586c6578706572696d656e74616cf50037",
  "source": "pragma solidity ^0.5.0;\npragma experimental ABIEncoderV2;\nimport \"./Degree.sol\";\n\n\n// contract Universities {\n//     mapping(address => University) public universities;\n//     uint public universityCount;\n//     Degree public degreeGenerator;\n//     Companies public companies;\n\n//     constructor(Degree _degree, Companies _companies) public\n//     {\n//         degreeGenerator = _degree;\n//         companies = _companies;\n//         universityCount = 0;\n//         addUniversity(\"Stellenbosch University\", \"randomnum\", 0x6C27fCEccC9A545f9965cA486cbEa5492a041CC4);\n//     }\n\n//     function addUniversity(string memory _name, string memory _identifier, address _wallet) public\n//     {\n//         University university = new University (_name, _identifier, _wallet, degreeGenerator, companies);\n//         universities[_wallet] = university;\n//         universityCount++;\n//     }\n\n//     function getUniversityInstance(address _wallet) public view returns (University) {\n//         return universities[_wallet];\n//     }\n\n//     function getUniversityCount() public view returns (uint){\n//         return universityCount;\n//     }\n// }\n\ncontract Companies {\n    Company[] companies;\n    uint public companyCount;\n\n    struct Company{\n        string name;\n        address wallet;\n    }\n\n     constructor() public{\n        companyCount = 0;\n     }\n\n    function addCompany(string memory name, address _wallet) public {\n        companies.push(Company(name, _wallet));\n        companyCount ++;\n    }\n}\n\ncontract UniversityDegreeAuthenticator{\n\n    Degree public degreeGenerator;\n    mapping(uint => address) public degreeTokenIds;\n    uint degreeTokenCount;\n    Companies public companies;\n    University currentUniversity;\n\n    struct University {\n        string universityName;\n        string identifier;\n        address wallet;\n    }\n\n    mapping(address => Student) students;\n    uint studentCount;\n    mapping(uint => Request) requests;\n    uint requestCount;\n\n    struct Student {\n        string studentid;\n        string name;\n        string surname;\n        address walletaddress;\n        bool exists;\n    }\n\n    struct Request {\n        string studentid;\n        string degreename;\n        string degreetype;\n        string degreemajor;\n        address walletaddress;\n    }\n\n    constructor(Degree _degree, Companies _companies) public\n    {\n        addUniversity(\"Stellenbosch University\", \"randomnum\", 0x6C27fCEccC9A545f9965cA486cbEa5492a041CC4);\n        degreeGenerator = _degree;\n        degreeTokenCount = 0;\n        companies = _companies;\n        addStudent(\"19026672\", \"Amanda\", \"Pierce\", 0x13ce81Ec624884Fc69E1C9eA60f962164d0Ac342);\n    }\n\n    function addUniversity(string memory _name, string memory _identifier, address _wallet) public\n    {\n        University memory university = University(_name, _identifier, _wallet);\n        currentUniversity = university;\n    }\n\n    function isRegisteredUser() public view returns (string memory)\n    {\n        if(!students[msg.sender].exists)\n        {\n            require((currentUniversity.wallet == msg.sender), \"University does not exist\");\n            return \"university\";\n        }\n        else\n        {\n            return \"student\";\n        }\n    }\n\n    function getName() public view returns (string memory)\n    {\n        string memory currentType = isRegisteredUser();\n\n        if(keccak256(abi.encodePacked(currentType)) == keccak256(abi.encodePacked(\"university\")))\n        {\n            return currentUniversity.universityName;\n        }\n        else\n        {\n            return string(abi.encodePacked(students[msg.sender].studentid, \": \", students[msg.sender].name, \" \", students[msg.sender].surname));\n        }\n    }\n\n    function getTotalRequests() public view returns (uint)\n    {\n        return requestCount;\n    }\n\n    function addStudent(string memory _studentid, string memory _studentname, string memory _surname, address _wallet) public {\n        //bytes32 _id = keccak256(abi.encodePacked(_studentid));\n        students[_wallet] = Student(_studentid, _studentname, _surname, _wallet, true);\n        studentCount++;\n    }\n\n    function getStudentInformation() public view returns (Student memory) {\n        require((students[msg.sender].exists), \"Student does not exist\");\n        Student memory student = students[msg.sender];\n        //bytes32 _id = keccak256(abi.encodePacked(_studentid));\n        return student;\n    }\n\n    function getAllDegrees() public view returns (string[] memory) {\n\n        string[] memory allDegrees = new string[](degreeTokenCount);\n        uint idx = 0;\n\n        for(uint i = 0; i < degreeTokenCount; i++)\n        {\n            address tmp = degreeTokenIds[i+1];\n            if(tmp == msg.sender)\n            {\n                allDegrees[idx] = degreeGenerator.getDegreeInformation(i);\n                idx++;\n            }\n        }\n\n        return allDegrees;\n    }\n\n    function requestDocument(string memory studentid, string memory degreename, string memory degreetype, string memory degreemajor) public {\n        requestCount++;\n        requests[requestCount] = Request(studentid, degreename, degreetype, degreemajor, msg.sender);\n    }\n\n    function getAllRequests(uint i) public view returns (string memory, address) {\n\n        string memory req = string(abi.encodePacked(requests[i].studentid, \": \", requests[i].degreename, \" \", requests[i].degreetype, \" \", requests[i].degreemajor));\n        address ad = requests[i].walletaddress;\n\n        return (req,ad);\n    }\n\n    function handleRequest(string memory studentid, string memory ipfshash, string memory uniqueKey) public {\n        Request memory request;\n        uint idx;\n        for(uint i = 1; i <= requestCount; i++)\n        {\n            if (keccak256(abi.encodePacked((requests[i].studentid))) == keccak256(abi.encodePacked((studentid))))\n            {\n                request = requests[i];\n                idx = i;\n                break;\n            }\n        }\n        addDegree(request.walletaddress, request.studentid, request.degreename, request.degreetype, request.degreemajor, ipfshash, uniqueKey);\n        delete requests[idx];\n        requestCount--;\n    }\n\n    function addDegree\n    (\n        address studentaddress,\n        string memory studentid,\n        string memory degreename,\n        string memory degreetype,\n        string memory degreemajor,\n        string memory ipfshash,\n        string memory uniqueKey\n    ) public\n    {\n        uint _id = degreeGenerator.mint(studentaddress, studentid, degreename, degreetype, degreemajor, ipfshash, uniqueKey);\n        degreeTokenCount++;\n        degreeTokenIds[_id] = studentaddress;\n    }\n\n    function getTotalDegrees() public view returns(uint) {\n        return degreeGenerator.totalSupply();\n    }\n \n    function getDegreeHash\n    (\n        string memory degreename,\n        string memory degreetype,\n        string memory degreemajor\n    ) public view returns (string memory) {\n        return degreeGenerator.getIpfsHash(degreename, degreetype, degreemajor);\n    }\n}\n",
  "sourcePath": "/home/amanda/Documents/Amanda/Blockchain-Ethereum-master/contracts/Universities.sol",
  "compiler": {
    "name": "solc",
    "version": "0.5.8+commit.23d335f2.Emscripten.clang"
  },
  "schemaVersion": "3.0.16",
  "updatedAt": "2019-10-28T08:33:18.614Z",
  "devdoc": {
    "methods": {}
  },
  "userdoc": {
    "methods": {}
  }
}