{
  "contractName": "DegreeAuthenticator",
  "abi": [
    {
      "constant": true,
      "inputs": [],
      "name": "degreeGenerator",
      "outputs": [
        {
          "name": "",
          "type": "address"
        }
      ],
      "payable": false,
      "stateMutability": "view",
      "type": "function"
    },
    {
      "constant": true,
      "inputs": [],
      "name": "universityidentifier",
      "outputs": [
        {
          "name": "",
          "type": "string"
        }
      ],
      "payable": false,
      "stateMutability": "view",
      "type": "function"
    },
    {
      "inputs": [
        {
          "name": "_degree",
          "type": "address"
        }
      ],
      "payable": false,
      "stateMutability": "nonpayable",
      "type": "constructor"
    },
    {
      "constant": false,
      "inputs": [
        {
          "name": "_identifier",
          "type": "string"
        },
        {
          "name": "wallet",
          "type": "address"
        }
      ],
      "name": "addUniversity",
      "outputs": [],
      "payable": false,
      "stateMutability": "nonpayable",
      "type": "function"
    },
    {
      "constant": false,
      "inputs": [
        {
          "name": "studentid",
          "type": "string"
        },
        {
          "name": "name",
          "type": "string"
        },
        {
          "name": "_walletaddress",
          "type": "address"
        }
      ],
      "name": "addStudent",
      "outputs": [],
      "payable": false,
      "stateMutability": "nonpayable",
      "type": "function"
    },
    {
      "constant": false,
      "inputs": [
        {
          "name": "studentid",
          "type": "string"
        },
        {
          "name": "degreename",
          "type": "string"
        },
        {
          "name": "degreetype",
          "type": "string"
        }
      ],
      "name": "requestDegree",
      "outputs": [],
      "payable": false,
      "stateMutability": "nonpayable",
      "type": "function"
    }
  ],
  "bytecode": "0x608060405234801561001057600080fd5b50604051602080610b9a8339810180604052602081101561003057600080fd5b81019080805190602001909291905050506100866040518060400160405280600c81526020017f5374656c6c656e626f7363680000000000000000000000000000000000000000815250336100cd60201b60201c565b80600260006101000a81548173ffffffffffffffffffffffffffffffffffffffff021916908373ffffffffffffffffffffffffffffffffffffffff160217905550506101ce565b81600090805190602001906100e3929190610129565b5080600160006101000a81548173ffffffffffffffffffffffffffffffffffffffff021916908373ffffffffffffffffffffffffffffffffffffffff1602179055505050565b828054600181600116156101000203166002900490600052602060002090601f016020900481019282601f1061016a57805160ff1916838001178555610198565b82800160010185558215610198579182015b8281111561019757825182559160200191906001019061017c565b5b5090506101a591906101a9565b5090565b6101cb91905b808211156101c75760008160009055506001016101af565b5090565b90565b6109bd806101dd6000396000f3fe608060405234801561001057600080fd5b50600436106100575760003560e01c806342de06191461005c5780638c2fd048146101ce5780639b30f0dc14610218578063a441b939146102f3578063afd73b8b146104dc575b600080fd5b6101cc6004803603606081101561007257600080fd5b810190808035906020019064010000000081111561008f57600080fd5b8201836020820111156100a157600080fd5b803590602001918460018302840111640100000000831117156100c357600080fd5b91908080601f016020809104026020016040519081016040528093929190818152602001838380828437600081840152601f19601f8201169050808301925050505050505091929192908035906020019064010000000081111561012657600080fd5b82018360208201111561013857600080fd5b8035906020019184600183028401116401000000008311171561015a57600080fd5b91908080601f016020809104026020016040519081016040528093929190818152602001838380828437600081840152601f19601f820116905080830192505050505050509192919290803573ffffffffffffffffffffffffffffffffffffffff16906020019092919050505061055f565b005b6101d66106a5565b604051808273ffffffffffffffffffffffffffffffffffffffff1673ffffffffffffffffffffffffffffffffffffffff16815260200191505060405180910390f35b6102f16004803603604081101561022e57600080fd5b810190808035906020019064010000000081111561024b57600080fd5b82018360208201111561025d57600080fd5b8035906020019184600183028401116401000000008311171561027f57600080fd5b91908080601f016020809104026020016040519081016040528093929190818152602001838380828437600081840152601f19601f820116905080830192505050505050509192919290803573ffffffffffffffffffffffffffffffffffffffff1690602001909291905050506106cb565b005b6104da6004803603606081101561030957600080fd5b810190808035906020019064010000000081111561032657600080fd5b82018360208201111561033857600080fd5b8035906020019184600183028401116401000000008311171561035a57600080fd5b91908080601f016020809104026020016040519081016040528093929190818152602001838380828437600081840152601f19601f820116905080830192505050505050509192919290803590602001906401000000008111156103bd57600080fd5b8201836020820111156103cf57600080fd5b803590602001918460018302840111640100000000831117156103f157600080fd5b91908080601f016020809104026020016040519081016040528093929190818152602001838380828437600081840152601f19601f8201169050808301925050505050505091929192908035906020019064010000000081111561045457600080fd5b82018360208201111561046657600080fd5b8035906020019184600183028401116401000000008311171561048857600080fd5b91908080601f016020809104026020016040519081016040528093929190818152602001838380828437600081840152601f19601f820116905080830192505050505050509192919290505050610727565b005b6104e46107ce565b6040518080602001828103825283818151815260200191508051906020019080838360005b83811015610524578082015181840152602081019050610509565b50505050905090810190601f1680156105515780820380516001836020036101000a031916815260200191505b509250505060405180910390f35b60056000815480929190600101919050555060405180608001604052808481526020018381526020018273ffffffffffffffffffffffffffffffffffffffff16815260200160008152506004846040518082805190602001908083835b602083106105df57805182526020820191506020810190506020830392506105bc565b6001836020036101000a0380198251168184511680821785525050505050509050019150509081526020016040518091039020600082015181600001908051906020019061062e92919061086c565b50602082015181600101908051906020019061064b92919061086c565b5060408201518160020160006101000a81548173ffffffffffffffffffffffffffffffffffffffff021916908373ffffffffffffffffffffffffffffffffffffffff16021790555060608201518160030155905050505050565b600260009054906101000a900473ffffffffffffffffffffffffffffffffffffffff1681565b81600090805190602001906106e19291906108ec565b5080600160006101000a81548173ffffffffffffffffffffffffffffffffffffffff021916908373ffffffffffffffffffffffffffffffffffffffff1602179055505050565b600360405180606001604052808581526020018481526020018381525090806001815401808255809150509060018203906000526020600020906003020160009091929091909150600082015181600001908051906020019061078b92919061086c565b5060208201518160010190805190602001906107a892919061086c565b5060408201518160020190805190602001906107c592919061086c565b50505050505050565b60008054600181600116156101000203166002900480601f0160208091040260200160405190810160405280929190818152602001828054600181600116156101000203166002900480156108645780601f1061083957610100808354040283529160200191610864565b820191906000526020600020905b81548152906001019060200180831161084757829003601f168201915b505050505081565b828054600181600116156101000203166002900490600052602060002090601f016020900481019282601f106108ad57805160ff19168380011785556108db565b828001600101855582156108db579182015b828111156108da5782518255916020019190600101906108bf565b5b5090506108e8919061096c565b5090565b828054600181600116156101000203166002900490600052602060002090601f016020900481019282601f1061092d57805160ff191683800117855561095b565b8280016001018555821561095b579182015b8281111561095a57825182559160200191906001019061093f565b5b509050610968919061096c565b5090565b61098e91905b8082111561098a576000816000905550600101610972565b5090565b9056fea165627a7a72305820c8273c96f9980298abf3d70a08771ebe759201c8726178f2180f9f36bee1f69e0029",
  "source": "pragma solidity ^0.5.0;\nimport \"./Degree.sol\";\n\ncontract DegreeAuthenticator {\n\n    string public universityidentifier;\n    address private universitywallet;\n    Degree public degreeGenerator;\n    Request[] private requests;\n\n    mapping(string => Student) students;\n    uint studentCount;\n\n    struct Request {\n        string studentid;\n        string degreename;\n        string degreetype;\n    }\n\n    struct DegreeFile {\n        string studentname;\n        string degreename;\n        string degreetype;\n        string degreemajor;\n        string ipfshash;\n    }\n\n    struct Student {\n        string studentid;\n        string name;\n        address walletaddress;\n        uint degreecount;\n        mapping(uint => DegreeFile) degrees;\n    }\n\n    mapping (string => bool) _degreeExists;\n\n    constructor (Degree _degree) public {\n        addUniversity(\"Stellenbosch\", msg.sender);\n        degreeGenerator = _degree;\n    }\n\n    function addUniversity(string memory _identifier, address wallet) public {\n        universityidentifier = _identifier;\n        universitywallet = wallet;\n    }\n\n    function addStudent(string memory studentid, string memory name, address _walletaddress) public {\n        studentCount++;\n        students[studentid] = Student(studentid, name, _walletaddress, 0);\n    }\n\n    function requestDegree(string memory studentid, string memory degreename, string memory degreetype) public {\n        requests.push(Request(studentid,degreename,degreetype));\n    }\n}",
  "sourcePath": "/home/amanda/Documents/Amanda/Blockchain-Ethereum-master/contracts/DegreeAutheticator.sol",
  "compiler": {
    "name": "solc",
    "version": "0.5.8+commit.23d335f2.Emscripten.clang"
  },
  "schemaVersion": "3.0.16",
  "updatedAt": "2019-10-27T18:17:42.478Z",
  "devdoc": {
    "methods": {}
  },
  "userdoc": {
    "methods": {}
  }
}