{
  "contractName": "UniversityDegreeAuthenticator",
  "abi": [
    {
      "constant": true,
      "inputs": [],
      "name": "companies",
      "outputs": [
        {
          "name": "",
          "type": "address"
        }
      ],
      "payable": false,
      "stateMutability": "view",
      "type": "function"
    },
    {
      "constant": true,
      "inputs": [
        {
          "name": "",
          "type": "uint256"
        }
      ],
      "name": "degreeTokenIds",
      "outputs": [
        {
          "name": "",
          "type": "address"
        }
      ],
      "payable": false,
      "stateMutability": "view",
      "type": "function"
    },
    {
      "constant": true,
      "inputs": [],
      "name": "degreeGenerator",
      "outputs": [
        {
          "name": "",
          "type": "address"
        }
      ],
      "payable": false,
      "stateMutability": "view",
      "type": "function"
    },
    {
      "inputs": [
        {
          "name": "_degree",
          "type": "address"
        },
        {
          "name": "_companies",
          "type": "address"
        }
      ],
      "payable": false,
      "stateMutability": "nonpayable",
      "type": "constructor"
    },
    {
      "constant": false,
      "inputs": [
        {
          "name": "_name",
          "type": "string"
        },
        {
          "name": "_identifier",
          "type": "string"
        },
        {
          "name": "_wallet",
          "type": "address"
        }
      ],
      "name": "addUniversity",
      "outputs": [],
      "payable": false,
      "stateMutability": "nonpayable",
      "type": "function"
    },
    {
      "constant": true,
      "inputs": [],
      "name": "isRegisteredUser",
      "outputs": [
        {
          "name": "",
          "type": "string"
        }
      ],
      "payable": false,
      "stateMutability": "view",
      "type": "function"
    },
    {
      "constant": true,
      "inputs": [],
      "name": "getName",
      "outputs": [
        {
          "name": "",
          "type": "string"
        }
      ],
      "payable": false,
      "stateMutability": "view",
      "type": "function"
    },
    {
      "constant": true,
      "inputs": [],
      "name": "getTotalRequests",
      "outputs": [
        {
          "name": "",
          "type": "uint256"
        }
      ],
      "payable": false,
      "stateMutability": "view",
      "type": "function"
    },
    {
      "constant": false,
      "inputs": [
        {
          "name": "_studentid",
          "type": "string"
        },
        {
          "name": "_studentname",
          "type": "string"
        },
        {
          "name": "_surname",
          "type": "string"
        },
        {
          "name": "_wallet",
          "type": "address"
        }
      ],
      "name": "addStudent",
      "outputs": [],
      "payable": false,
      "stateMutability": "nonpayable",
      "type": "function"
    },
    {
      "constant": true,
      "inputs": [],
      "name": "getStudentInformation",
      "outputs": [
        {
          "components": [
            {
              "name": "studentid",
              "type": "string"
            },
            {
              "name": "name",
              "type": "string"
            },
            {
              "name": "surname",
              "type": "string"
            },
            {
              "name": "walletaddress",
              "type": "address"
            },
            {
              "name": "exists",
              "type": "bool"
            }
          ],
          "name": "",
          "type": "tuple"
        }
      ],
      "payable": false,
      "stateMutability": "view",
      "type": "function"
    },
    {
      "constant": true,
      "inputs": [],
      "name": "getAllDegrees",
      "outputs": [
        {
          "name": "",
          "type": "string[]"
        }
      ],
      "payable": false,
      "stateMutability": "view",
      "type": "function"
    },
    {
      "constant": false,
      "inputs": [
        {
          "name": "studentid",
          "type": "string"
        },
        {
          "name": "degreename",
          "type": "string"
        },
        {
          "name": "degreetype",
          "type": "string"
        },
        {
          "name": "degreemajor",
          "type": "string"
        }
      ],
      "name": "requestDocument",
      "outputs": [],
      "payable": false,
      "stateMutability": "nonpayable",
      "type": "function"
    },
    {
      "constant": true,
      "inputs": [
        {
          "name": "i",
          "type": "uint256"
        }
      ],
      "name": "getAllRequests",
      "outputs": [
        {
          "name": "",
          "type": "string"
        },
        {
          "name": "",
          "type": "address"
        }
      ],
      "payable": false,
      "stateMutability": "view",
      "type": "function"
    },
    {
      "constant": false,
      "inputs": [
        {
          "name": "studentid",
          "type": "string"
        },
        {
          "name": "ipfshash",
          "type": "string"
        },
        {
          "name": "uniqueKey",
          "type": "string"
        }
      ],
      "name": "handleRequest",
      "outputs": [],
      "payable": false,
      "stateMutability": "nonpayable",
      "type": "function"
    },
    {
      "constant": false,
      "inputs": [
        {
          "name": "studentaddress",
          "type": "address"
        },
        {
          "name": "studentid",
          "type": "string"
        },
        {
          "name": "degreename",
          "type": "string"
        },
        {
          "name": "degreetype",
          "type": "string"
        },
        {
          "name": "degreemajor",
          "type": "string"
        },
        {
          "name": "ipfshash",
          "type": "string"
        },
        {
          "name": "uniqueKey",
          "type": "string"
        }
      ],
      "name": "addDegree",
      "outputs": [],
      "payable": false,
      "stateMutability": "nonpayable",
      "type": "function"
    },
    {
      "constant": true,
      "inputs": [],
      "name": "getTotalDegrees",
      "outputs": [
        {
          "name": "",
          "type": "uint256"
        }
      ],
      "payable": false,
      "stateMutability": "view",
      "type": "function"
    },
    {
      "constant": true,
      "inputs": [
        {
          "name": "degreename",
          "type": "string"
        },
        {
          "name": "degreetype",
          "type": "string"
        },
        {
          "name": "degreemajor",
          "type": "string"
        }
      ],
      "name": "getDegreeHash",
      "outputs": [
        {
          "name": "",
          "type": "string"
        }
      ],
      "payable": false,
      "stateMutability": "view",
      "type": "function"
    }
  ],
  "bytecode": "0x60806040523480156200001157600080fd5b5060405160408062002cfe83398101806040526200003391908101906200055c565b620000c46040518060400160405280601781526020017f5374656c6c656e626f73636820556e69766572736974790000000000000000008152506040518060400160405280600981526020017f72616e646f6d6e756d0000000000000000000000000000000000000000000000815250736c27fceccc9a545f9965ca486cbea5492a041cc46200021c60201b60201c565b816000806101000a81548173ffffffffffffffffffffffffffffffffffffffff021916908373ffffffffffffffffffffffffffffffffffffffff160217905550600060028190555080600360006101000a81548173ffffffffffffffffffffffffffffffffffffffff021916908373ffffffffffffffffffffffffffffffffffffffff160217905550620002146040518060400160405280600881526020017f31393032363637320000000000000000000000000000000000000000000000008152506040518060400160405280600681526020017f416d616e646100000000000000000000000000000000000000000000000000008152506040518060400160405280600681526020017f50696572636500000000000000000000000000000000000000000000000000008152507313ce81ec624884fc69e1c9ea60f962164d0ac342620002ea60201b60201c565b50506200062d565b6200022662000448565b60405180606001604052808581526020018481526020018373ffffffffffffffffffffffffffffffffffffffff16815250905080600460008201518160000190805190602001906200027a9291906200047f565b506020820151816001019080519060200190620002999291906200047f565b5060408201518160020160006101000a81548173ffffffffffffffffffffffffffffffffffffffff021916908373ffffffffffffffffffffffffffffffffffffffff16021790555090505050505050565b6040518060a001604052808581526020018481526020018381526020018273ffffffffffffffffffffffffffffffffffffffff16815260200160011515815250600760008373ffffffffffffffffffffffffffffffffffffffff1673ffffffffffffffffffffffffffffffffffffffff1681526020019081526020016000206000820151816000019080519060200190620003879291906200047f565b506020820151816001019080519060200190620003a69291906200047f565b506040820151816002019080519060200190620003c59291906200047f565b5060608201518160030160006101000a81548173ffffffffffffffffffffffffffffffffffffffff021916908373ffffffffffffffffffffffffffffffffffffffff16021790555060808201518160030160146101000a81548160ff02191690831515021790555090505060086000815480929190600101919050555050505050565b60405180606001604052806060815260200160608152602001600073ffffffffffffffffffffffffffffffffffffffff1681525090565b828054600181600116156101000203166002900490600052602060002090601f016020900481019282601f10620004c257805160ff1916838001178555620004f3565b82800160010185558215620004f3579182015b82811115620004f2578251825591602001919060010190620004d5565b5b50905062000502919062000506565b5090565b6200052b91905b80821115620005275760008160009055506001016200050d565b5090565b90565b6000815190506200053f81620005f9565b92915050565b600081519050620005568162000613565b92915050565b600080604083850312156200057057600080fd5b6000620005808582860162000545565b925050602062000593858286016200052e565b9150509250929050565b6000620005aa82620005d9565b9050919050565b6000620005be826200059d565b9050919050565b6000620005d2826200059d565b9050919050565b600073ffffffffffffffffffffffffffffffffffffffff82169050919050565b6200060481620005b1565b81146200061057600080fd5b50565b6200061e81620005c5565b81146200062a57600080fd5b50565b6126c1806200063d6000396000f3fe608060405234801561001057600080fd5b50600436106101005760003560e01c80638c2fd04811610097578063d6db91a411610066578063d6db91a41461029c578063e3510162146102ba578063e5b5259b146102d6578063f0e22d52146102f457610100565b80638c2fd0481461022a5780638c7e63241461024857806396e3f809146102645780639df310e11461028057610100565b8063330516c9116100d3578063330516c91461018f578063366b19ae146101c05780636af6a039146101de57806384003142146101fa57610100565b80630194ff8c14610105578063058c86dc1461012357806317d7de7c146101535780632a45468614610171575b600080fd5b61010d610312565b60405161011a9190612341565b60405180910390f35b61013d60048036036101389190810190611d58565b610338565b60405161014a919061226b565b60405180910390f35b61015b61036b565b6040516101689190612377565b60405180910390f35b61017961055e565b6040516101869190612455565b60405180910390f35b6101a960048036036101a49190810190611d58565b6108a7565b6040516101b7929190612399565b60405180910390f35b6101c8610971565b6040516101d59190612377565b60405180910390f35b6101f860048036036101f39190810190611bea565b610ad3565b005b610214600480360361020f9190810190611b53565b610c2b565b6040516102219190612377565b60405180910390f35b610232610ce9565b60405161023f919061235c565b60405180910390f35b610262600480360361025d9190810190611965565b610d0e565b005b61027e60048036036102799190810190611c95565b610e38565b005b61029a60048036036102959190810190611b53565b610f60565b005b6102a46113b0565b6040516102b1919061231f565b60405180910390f35b6102d460048036036102cf9190810190611ad4565b611556565b005b6102de61161e565b6040516102eb9190612477565b60405180910390f35b6102fc6116c4565b6040516103099190612477565b60405180910390f35b600360009054906101000a900473ffffffffffffffffffffffffffffffffffffffff1681565b60016020528060005260406000206000915054906101000a900473ffffffffffffffffffffffffffffffffffffffff1681565b606080610376610971565b905060405160200161038790612256565b60405160208183030381529060405280519060200120816040516020016103ae9190612182565b6040516020818303038152906040528051906020012014156104705760046000018054600181600116156101000203166002900480601f0160208091040260200160405190810160405280929190818152602001828054600181600116156101000203166002900480156104635780601f1061043857610100808354040283529160200191610463565b820191906000526020600020905b81548152906001019060200180831161044657829003601f168201915b505050505091505061055b565b600760003373ffffffffffffffffffffffffffffffffffffffff1673ffffffffffffffffffffffffffffffffffffffff168152602001908152602001600020600001600760003373ffffffffffffffffffffffffffffffffffffffff1673ffffffffffffffffffffffffffffffffffffffff168152602001908152602001600020600101600760003373ffffffffffffffffffffffffffffffffffffffff1673ffffffffffffffffffffffffffffffffffffffff168152602001908152602001600020600201604051602001610548939291906121b0565b6040516020818303038152906040529150505b90565b6105666116ce565b600760003373ffffffffffffffffffffffffffffffffffffffff1673ffffffffffffffffffffffffffffffffffffffff16815260200190815260200160002060030160149054906101000a900460ff166105f5576040517f08c379a00000000000000000000000000000000000000000000000000000000081526004016105ec90612435565b60405180910390fd5b6105fd6116ce565b600760003373ffffffffffffffffffffffffffffffffffffffff1673ffffffffffffffffffffffffffffffffffffffff1681526020019081526020016000206040518060a0016040529081600082018054600181600116156101000203166002900480601f0160208091040260200160405190810160405280929190818152602001828054600181600116156101000203166002900480156106e05780601f106106b5576101008083540402835291602001916106e0565b820191906000526020600020905b8154815290600101906020018083116106c357829003601f168201915b50505050508152602001600182018054600181600116156101000203166002900480601f0160208091040260200160405190810160405280929190818152602001828054600181600116156101000203166002900480156107825780601f1061075757610100808354040283529160200191610782565b820191906000526020600020905b81548152906001019060200180831161076557829003601f168201915b50505050508152602001600282018054600181600116156101000203166002900480601f0160208091040260200160405190810160405280929190818152602001828054600181600116156101000203166002900480156108245780601f106107f957610100808354040283529160200191610824565b820191906000526020600020905b81548152906001019060200180831161080757829003601f168201915b505050505081526020016003820160009054906101000a900473ffffffffffffffffffffffffffffffffffffffff1673ffffffffffffffffffffffffffffffffffffffff1673ffffffffffffffffffffffffffffffffffffffff1681526020016003820160149054906101000a900460ff16151515158152505090508091505090565b6060600060606009600085815260200190815260200160002060000160096000868152602001908152602001600020600101600960008781526020019081526020016000206002016009600088815260200190815260200160002060030160405160200161091894939291906121f7565b604051602081830303815290604052905060006009600086815260200190815260200160002060040160009054906101000a900473ffffffffffffffffffffffffffffffffffffffff1690508181935093505050915091565b6060600760003373ffffffffffffffffffffffffffffffffffffffff1673ffffffffffffffffffffffffffffffffffffffff16815260200190815260200160002060030160149054906101000a900460ff16610a97573373ffffffffffffffffffffffffffffffffffffffff16600460020160009054906101000a900473ffffffffffffffffffffffffffffffffffffffff1673ffffffffffffffffffffffffffffffffffffffff1614610a5a576040517f08c379a0000000000000000000000000000000000000000000000000000000008152600401610a5190612415565b60405180910390fd5b6040518060400160405280600a81526020017f756e6976657273697479000000000000000000000000000000000000000000008152509050610ad0565b6040518060400160405280600781526020017f73747564656e740000000000000000000000000000000000000000000000000081525090505b90565b6040518060a001604052808581526020018481526020018381526020018273ffffffffffffffffffffffffffffffffffffffff16815260200160011515815250600760008373ffffffffffffffffffffffffffffffffffffffff1673ffffffffffffffffffffffffffffffffffffffff1681526020019081526020016000206000820151816000019080519060200190610b6e929190611715565b506020820151816001019080519060200190610b8b929190611715565b506040820151816002019080519060200190610ba8929190611715565b5060608201518160030160006101000a81548173ffffffffffffffffffffffffffffffffffffffff021916908373ffffffffffffffffffffffffffffffffffffffff16021790555060808201518160030160146101000a81548160ff02191690831515021790555090505060086000815480929190600101919050555050505050565b60606000809054906101000a900473ffffffffffffffffffffffffffffffffffffffff1673ffffffffffffffffffffffffffffffffffffffff166341191c0a8585856040518463ffffffff1660e01b8152600401610c8b939291906123c9565b60006040518083038186803b158015610ca357600080fd5b505afa158015610cb7573d6000803e3d6000fd5b505050506040513d6000823e3d601f19601f82011682018060405250610ce09190810190611a93565b90509392505050565b6000809054906101000a900473ffffffffffffffffffffffffffffffffffffffff1681565b60008060009054906101000a900473ffffffffffffffffffffffffffffffffffffffff1673ffffffffffffffffffffffffffffffffffffffff1663aba81125898989898989896040518863ffffffff1660e01b8152600401610d769796959493929190612286565b602060405180830381600087803b158015610d9057600080fd5b505af1158015610da4573d6000803e3d6000fd5b505050506040513d601f19601f82011682018060405250610dc89190810190611d81565b9050600260008154809291906001019190505550876001600083815260200190815260200160002060006101000a81548173ffffffffffffffffffffffffffffffffffffffff021916908373ffffffffffffffffffffffffffffffffffffffff1602179055505050505050505050565b600a600081548092919060010191905055506040518060a001604052808581526020018481526020018381526020018281526020013373ffffffffffffffffffffffffffffffffffffffff1681525060096000600a5481526020019081526020016000206000820151816000019080519060200190610eb8929190611715565b506020820151816001019080519060200190610ed5929190611715565b506040820151816002019080519060200190610ef2929190611715565b506060820151816003019080519060200190610f0f929190611715565b5060808201518160040160006101000a81548173ffffffffffffffffffffffffffffffffffffffff021916908373ffffffffffffffffffffffffffffffffffffffff16021790555090505050505050565b610f68611795565b600080600190505b600a5481116112f55785604051602001610f8a9190612182565b6040516020818303038152906040528051906020012060096000838152602001908152602001600020600001604051602001610fc69190612199565b6040516020818303038152906040528051906020012014156112e857600960008281526020019081526020016000206040518060a0016040529081600082018054600181600116156101000203166002900480601f0160208091040260200160405190810160405280929190818152602001828054600181600116156101000203166002900480156110995780601f1061106e57610100808354040283529160200191611099565b820191906000526020600020905b81548152906001019060200180831161107c57829003601f168201915b50505050508152602001600182018054600181600116156101000203166002900480601f01602080910402602001604051908101604052809291908181526020018280546001816001161561010002031660029004801561113b5780601f106111105761010080835404028352916020019161113b565b820191906000526020600020905b81548152906001019060200180831161111e57829003601f168201915b50505050508152602001600282018054600181600116156101000203166002900480601f0160208091040260200160405190810160405280929190818152602001828054600181600116156101000203166002900480156111dd5780601f106111b2576101008083540402835291602001916111dd565b820191906000526020600020905b8154815290600101906020018083116111c057829003601f168201915b50505050508152602001600382018054600181600116156101000203166002900480601f01602080910402602001604051908101604052809291908181526020018280546001816001161561010002031660029004801561127f5780601f106112545761010080835404028352916020019161127f565b820191906000526020600020905b81548152906001019060200180831161126257829003601f168201915b505050505081526020016004820160009054906101000a900473ffffffffffffffffffffffffffffffffffffffff1673ffffffffffffffffffffffffffffffffffffffff1673ffffffffffffffffffffffffffffffffffffffff168152505092508091506112f5565b8080600101915050610f70565b50611319826080015183600001518460200151856040015186606001518989610d0e565b600960008281526020019081526020016000206000808201600061133d91906117da565b60018201600061134d91906117da565b60028201600061135d91906117da565b60038201600061136d91906117da565b6004820160006101000a81549073ffffffffffffffffffffffffffffffffffffffff02191690555050600a60008154809291906001900391905055505050505050565b6060806002546040519080825280602002602001820160405280156113e957816020015b60608152602001906001900390816113d45790505b509050600080905060008090505b60025481101561154d5760006001600060018401815260200190815260200160002060009054906101000a900473ffffffffffffffffffffffffffffffffffffffff1690503373ffffffffffffffffffffffffffffffffffffffff168173ffffffffffffffffffffffffffffffffffffffff16141561153f576000809054906101000a900473ffffffffffffffffffffffffffffffffffffffff1673ffffffffffffffffffffffffffffffffffffffff16630afe0358836040518263ffffffff1660e01b81526004016114ca9190612477565b60006040518083038186803b1580156114e257600080fd5b505afa1580156114f6573d6000803e3d6000fd5b505050506040513d6000823e3d601f19601f8201168201806040525061151f9190810190611a93565b84848151811061152b57fe5b602002602001018190525082806001019350505b5080806001019150506113f7565b50819250505090565b61155e611822565b60405180606001604052808581526020018481526020018373ffffffffffffffffffffffffffffffffffffffff16815250905080600460008201518160000190805190602001906115b0929190611715565b5060208201518160010190805190602001906115cd929190611715565b5060408201518160020160006101000a81548173ffffffffffffffffffffffffffffffffffffffff021916908373ffffffffffffffffffffffffffffffffffffffff16021790555090505050505050565b60008060009054906101000a900473ffffffffffffffffffffffffffffffffffffffff1673ffffffffffffffffffffffffffffffffffffffff166318160ddd6040518163ffffffff1660e01b815260040160206040518083038186803b15801561168757600080fd5b505afa15801561169b573d6000803e3d6000fd5b505050506040513d601f19601f820116820180604052506116bf9190810190611d81565b905090565b6000600a54905090565b6040518060a00160405280606081526020016060815260200160608152602001600073ffffffffffffffffffffffffffffffffffffffff1681526020016000151581525090565b828054600181600116156101000203166002900490600052602060002090601f016020900481019282601f1061175657805160ff1916838001178555611784565b82800160010185558215611784579182015b82811115611783578251825591602001919060010190611768565b5b5090506117919190611859565b5090565b6040518060a0016040528060608152602001606081526020016060815260200160608152602001600073ffffffffffffffffffffffffffffffffffffffff1681525090565b50805460018160011615610100020316600290046000825580601f10611800575061181f565b601f01602090049060005260206000209081019061181e9190611859565b5b50565b60405180606001604052806060815260200160608152602001600073ffffffffffffffffffffffffffffffffffffffff1681525090565b61187b91905b8082111561187757600081600090555060010161185f565b5090565b90565b60008135905061188d81612659565b92915050565b600082601f8301126118a457600080fd5b81356118b76118b2826124bf565b612492565b915080825260208301602083018583830111156118d357600080fd5b6118de838284612606565b50505092915050565b600082601f8301126118f857600080fd5b815161190b611906826124bf565b612492565b9150808252602083016020830185838301111561192757600080fd5b611932838284612615565b50505092915050565b60008135905061194a81612670565b92915050565b60008151905061195f81612670565b92915050565b600080600080600080600060e0888a03121561198057600080fd5b600061198e8a828b0161187e565b975050602088013567ffffffffffffffff8111156119ab57600080fd5b6119b78a828b01611893565b965050604088013567ffffffffffffffff8111156119d457600080fd5b6119e08a828b01611893565b955050606088013567ffffffffffffffff8111156119fd57600080fd5b611a098a828b01611893565b945050608088013567ffffffffffffffff811115611a2657600080fd5b611a328a828b01611893565b93505060a088013567ffffffffffffffff811115611a4f57600080fd5b611a5b8a828b01611893565b92505060c088013567ffffffffffffffff811115611a7857600080fd5b611a848a828b01611893565b91505092959891949750929550565b600060208284031215611aa557600080fd5b600082015167ffffffffffffffff811115611abf57600080fd5b611acb848285016118e7565b91505092915050565b600080600060608486031215611ae957600080fd5b600084013567ffffffffffffffff811115611b0357600080fd5b611b0f86828701611893565b935050602084013567ffffffffffffffff811115611b2c57600080fd5b611b3886828701611893565b9250506040611b498682870161187e565b9150509250925092565b600080600060608486031215611b6857600080fd5b600084013567ffffffffffffffff811115611b8257600080fd5b611b8e86828701611893565b935050602084013567ffffffffffffffff811115611bab57600080fd5b611bb786828701611893565b925050604084013567ffffffffffffffff811115611bd457600080fd5b611be086828701611893565b9150509250925092565b60008060008060808587031215611c0057600080fd5b600085013567ffffffffffffffff811115611c1a57600080fd5b611c2687828801611893565b945050602085013567ffffffffffffffff811115611c4357600080fd5b611c4f87828801611893565b935050604085013567ffffffffffffffff811115611c6c57600080fd5b611c7887828801611893565b9250506060611c898782880161187e565b91505092959194509250565b60008060008060808587031215611cab57600080fd5b600085013567ffffffffffffffff811115611cc557600080fd5b611cd187828801611893565b945050602085013567ffffffffffffffff811115611cee57600080fd5b611cfa87828801611893565b935050604085013567ffffffffffffffff811115611d1757600080fd5b611d2387828801611893565b925050606085013567ffffffffffffffff811115611d4057600080fd5b611d4c87828801611893565b91505092959194509250565b600060208284031215611d6a57600080fd5b6000611d788482850161193b565b91505092915050565b600060208284031215611d9357600080fd5b6000611da184828501611950565b91505092915050565b6000611db68383611ee8565b905092915050565b611dc781612576565b82525050565b611dd681612576565b82525050565b6000611de78261250a565b611df18185612538565b935083602082028501611e03856124eb565b8060005b85811015611e3f5784840389528151611e208582611daa565b9450611e2b8361252b565b925060208a01995050600181019050611e07565b50829750879550505050505092915050565b611e5a81612588565b82525050565b611e69816125be565b82525050565b611e78816125e2565b82525050565b6000611e8982612520565b611e93818561255a565b9350611ea3818560208601612615565b611eac81612648565b840191505092915050565b6000611ec282612520565b611ecc818561256b565b9350611edc818560208601612615565b80840191505092915050565b6000611ef382612515565b611efd8185612549565b9350611f0d818560208601612615565b611f1681612648565b840191505092915050565b600081546001811660008114611f3e5760018114611f6357611fa7565b607f6002830416611f4f818761256b565b955060ff1983168652808601935050611fa7565b60028204611f71818761256b565b9550611f7c856124f8565b60005b82811015611f9e57815481890152600182019150602081019050611f7f565b82880195505050505b505092915050565b6000611fbc60198361255a565b91507f556e697665727369747920646f6573206e6f74206578697374000000000000006000830152602082019050919050565b6000611ffc600a8361256b565b91507f756e6976657273697479000000000000000000000000000000000000000000006000830152600a82019050919050565b600061203c60018361256b565b91507f20000000000000000000000000000000000000000000000000000000000000006000830152600182019050919050565b600061207c60168361255a565b91507f53747564656e7420646f6573206e6f74206578697374000000000000000000006000830152602082019050919050565b60006120bc60028361256b565b91507f3a200000000000000000000000000000000000000000000000000000000000006000830152600282019050919050565b600060a083016000830151848203600086015261210c8282611ee8565b915050602083015184820360208601526121268282611ee8565b915050604083015184820360408601526121408282611ee8565b91505060608301516121556060860182611dbe565b5060808301516121686080860182611e51565b508091505092915050565b61217c816125b4565b82525050565b600061218e8284611eb7565b915081905092915050565b60006121a58284611f21565b915081905092915050565b60006121bc8286611f21565b91506121c7826120af565b91506121d38285611f21565b91506121de8261202f565b91506121ea8284611f21565b9150819050949350505050565b60006122038287611f21565b915061220e826120af565b915061221a8286611f21565b91506122258261202f565b91506122318285611f21565b915061223c8261202f565b91506122488284611f21565b915081905095945050505050565b600061226182611fef565b9150819050919050565b60006020820190506122806000830184611dcd565b92915050565b600060e08201905061229b600083018a611dcd565b81810360208301526122ad8189611e7e565b905081810360408301526122c18188611e7e565b905081810360608301526122d58187611e7e565b905081810360808301526122e98186611e7e565b905081810360a08301526122fd8185611e7e565b905081810360c08301526123118184611e7e565b905098975050505050505050565b600060208201905081810360008301526123398184611ddc565b905092915050565b60006020820190506123566000830184611e60565b92915050565b60006020820190506123716000830184611e6f565b92915050565b600060208201905081810360008301526123918184611e7e565b905092915050565b600060408201905081810360008301526123b38185611e7e565b90506123c26020830184611dcd565b9392505050565b600060608201905081810360008301526123e38186611e7e565b905081810360208301526123f78185611e7e565b9050818103604083015261240b8184611e7e565b9050949350505050565b6000602082019050818103600083015261242e81611faf565b9050919050565b6000602082019050818103600083015261244e8161206f565b9050919050565b6000602082019050818103600083015261246f81846120ef565b905092915050565b600060208201905061248c6000830184612173565b92915050565b6000604051905081810181811067ffffffffffffffff821117156124b557600080fd5b8060405250919050565b600067ffffffffffffffff8211156124d657600080fd5b601f19601f8301169050602081019050919050565b6000602082019050919050565b60008160005260206000209050919050565b600081519050919050565b600081519050919050565b600081519050919050565b6000602082019050919050565b600082825260208201905092915050565b600082825260208201905092915050565b600082825260208201905092915050565b600081905092915050565b600061258182612594565b9050919050565b60008115159050919050565b600073ffffffffffffffffffffffffffffffffffffffff82169050919050565b6000819050919050565b60006125c9826125d0565b9050919050565b60006125db82612594565b9050919050565b60006125ed826125f4565b9050919050565b60006125ff82612594565b9050919050565b82818337600083830152505050565b60005b83811015612633578082015181840152602081019050612618565b83811115612642576000848401525b50505050565b6000601f19601f8301169050919050565b61266281612576565b811461266d57600080fd5b50565b612679816125b4565b811461268457600080fd5b5056fea265627a7a723058204a614e527e9d5132a140e9fc50eb79969f1c3fddbc4a937ddac934c99b7130066c6578706572696d656e74616cf50037",
  "source": "pragma solidity ^0.5.0;\npragma experimental ABIEncoderV2;\nimport \"./Degree.sol\";\n\n\n// contract Universities {\n//     mapping(address => University) public universities;\n//     uint public universityCount;\n//     Degree public degreeGenerator;\n//     Companies public companies;\n\n//     constructor(Degree _degree, Companies _companies) public\n//     {\n//         degreeGenerator = _degree;\n//         companies = _companies;\n//         universityCount = 0;\n//         addUniversity(\"Stellenbosch University\", \"randomnum\", 0x6C27fCEccC9A545f9965cA486cbEa5492a041CC4);\n//     }\n\n//     function addUniversity(string memory _name, string memory _identifier, address _wallet) public\n//     {\n//         University university = new University (_name, _identifier, _wallet, degreeGenerator, companies);\n//         universities[_wallet] = university;\n//         universityCount++;\n//     }\n\n//     function getUniversityInstance(address _wallet) public view returns (University) {\n//         return universities[_wallet];\n//     }\n\n//     function getUniversityCount() public view returns (uint){\n//         return universityCount;\n//     }\n// }\n\ncontract Companies {\n    Company[] companies;\n    uint public companyCount;\n\n    struct Company{\n        string name;\n        address wallet;\n    }\n\n     constructor() public{\n        companyCount = 0;\n     }\n\n    function addCompany(string memory name, address _wallet) public {\n        companies.push(Company(name, _wallet));\n        companyCount ++;\n    }\n}\n\ncontract UniversityDegreeAuthenticator{\n\n    Degree public degreeGenerator;\n    mapping(uint => address) public degreeTokenIds;\n    uint degreeTokenCount;\n    Companies public companies;\n    University currentUniversity;\n\n    struct University {\n        string universityName;\n        string identifier;\n        address wallet;\n    }\n\n    mapping(address => Student) students;\n    uint studentCount;\n    mapping(uint => Request) requests;\n    uint requestCount;\n\n    struct Student {\n        string studentid;\n        string name;\n        string surname;\n        address walletaddress;\n        bool exists;\n    }\n\n    struct Request {\n        string studentid;\n        string degreename;\n        string degreetype;\n        string degreemajor;\n        address walletaddress;\n    }\n\n    constructor(Degree _degree, Companies _companies) public\n    {\n        addUniversity(\"Stellenbosch University\", \"randomnum\", 0x6C27fCEccC9A545f9965cA486cbEa5492a041CC4);\n        degreeGenerator = _degree;\n        degreeTokenCount = 0;\n        companies = _companies;\n        addStudent(\"19026672\", \"Amanda\", \"Pierce\", 0x13ce81Ec624884Fc69E1C9eA60f962164d0Ac342);\n    }\n\n    function addUniversity(string memory _name, string memory _identifier, address _wallet) public\n    {\n        University memory university = University(_name, _identifier, _wallet);\n        currentUniversity = university;\n    }\n\n    function isRegisteredUser() public view returns (string memory)\n    {\n        if(!students[msg.sender].exists)\n        {\n            require((currentUniversity.wallet == msg.sender), \"University does not exist\");\n            return \"university\";\n        }\n        else\n        {\n            return \"student\";\n        }\n    }\n\n    function getName() public view returns (string memory)\n    {\n        string memory currentType = isRegisteredUser();\n\n        if(keccak256(abi.encodePacked(currentType)) == keccak256(abi.encodePacked(\"university\")))\n        {\n            return currentUniversity.universityName;\n        }\n        else\n        {\n            return string(abi.encodePacked(students[msg.sender].studentid, \": \", students[msg.sender].name, \" \", students[msg.sender].surname));\n        }\n    }\n\n    function getTotalRequests() public view returns (uint)\n    {\n        return requestCount;\n    }\n\n    function addStudent(string memory _studentid, string memory _studentname, string memory _surname, address _wallet) public {\n        //bytes32 _id = keccak256(abi.encodePacked(_studentid));\n        students[_wallet] = Student(_studentid, _studentname, _surname, _wallet, true);\n        studentCount++;\n    }\n\n    function getStudentInformation() public view returns (Student memory) {\n        require((students[msg.sender].exists), \"Student does not exist\");\n        Student memory student = students[msg.sender];\n        //bytes32 _id = keccak256(abi.encodePacked(_studentid));\n        return student;\n    }\n\n    function getAllDegrees() public view returns (string[] memory) {\n\n        string[] memory allDegrees = new string[](degreeTokenCount);\n        uint idx = 0;\n\n        for(uint i = 0; i < degreeTokenCount; i++)\n        {\n            address tmp = degreeTokenIds[i+1];\n            if(tmp == msg.sender)\n            {\n                allDegrees[idx] = degreeGenerator.getDegreeInformation(i);\n                idx++;\n            }\n        }\n\n        return allDegrees;\n    }\n\n    function requestDocument(string memory studentid, string memory degreename, string memory degreetype, string memory degreemajor) public {\n        requestCount++;\n        requests[requestCount] = Request(studentid, degreename, degreetype, degreemajor, msg.sender);\n    }\n\n    function getAllRequests(uint i) public view returns (string memory, address) {\n\n        string memory req = string(abi.encodePacked(requests[i].studentid, \": \", requests[i].degreename, \" \", requests[i].degreetype, \" \", requests[i].degreemajor));\n        address ad = requests[i].walletaddress;\n\n        return (req,ad);\n    }\n\n    function handleRequest(string memory studentid, string memory ipfshash, string memory uniqueKey) public {\n        Request memory request;\n        uint idx;\n        for(uint i = 1; i <= requestCount; i++)\n        {\n            if (keccak256(abi.encodePacked((requests[i].studentid))) == keccak256(abi.encodePacked((studentid))))\n            {\n                request = requests[i];\n                idx = i;\n                break;\n            }\n        }\n        addDegree(request.walletaddress, request.studentid, request.degreename, request.degreetype, request.degreemajor, ipfshash, uniqueKey);\n        delete requests[idx];\n        requestCount--;\n    }\n\n    function addDegree\n    (\n        address studentaddress,\n        string memory studentid,\n        string memory degreename,\n        string memory degreetype,\n        string memory degreemajor,\n        string memory ipfshash,\n        string memory uniqueKey\n    ) public\n    {\n        uint _id = degreeGenerator.mint(studentaddress, studentid, degreename, degreetype, degreemajor, ipfshash, uniqueKey);\n        degreeTokenCount++;\n        degreeTokenIds[_id] = studentaddress;\n    }\n\n    function getTotalDegrees() public view returns(uint) {\n        return degreeGenerator.totalSupply();\n    }\n \n    function getDegreeHash\n    (\n        string memory degreename,\n        string memory degreetype,\n        string memory degreemajor\n    ) public view returns (string memory) {\n        return degreeGenerator.getIpfsHash(degreename, degreetype, degreemajor);\n    }\n}\n",
  "sourcePath": "/home/amanda/Documents/Amanda/Blockchain-Ethereum-master/contracts/Universities.sol",
  "compiler": {
    "name": "solc",
    "version": "0.5.8+commit.23d335f2.Emscripten.clang"
  },
  "schemaVersion": "3.0.16",
  "updatedAt": "2019-10-28T08:33:18.623Z",
  "devdoc": {
    "methods": {}
  },
  "userdoc": {
    "methods": {}
  }
}