{
  "contractName": "UniversityDegreeAuth",
  "abi": [
    {
      "constant": true,
      "inputs": [],
      "name": "degreeGenerator",
      "outputs": [
        {
          "name": "",
          "type": "address"
        }
      ],
      "payable": false,
      "stateMutability": "view",
      "type": "function"
    },
    {
      "constant": true,
      "inputs": [
        {
          "name": "",
          "type": "address"
        }
      ],
      "name": "students",
      "outputs": [
        {
          "name": "studentid",
          "type": "string"
        },
        {
          "name": "name",
          "type": "string"
        },
        {
          "name": "surname",
          "type": "string"
        },
        {
          "name": "walletaddress",
          "type": "address"
        },
        {
          "name": "degreeTokenCount",
          "type": "uint256"
        }
      ],
      "payable": false,
      "stateMutability": "view",
      "type": "function"
    },
    {
      "inputs": [
        {
          "name": "_degree",
          "type": "address"
        }
      ],
      "payable": false,
      "stateMutability": "nonpayable",
      "type": "constructor"
    },
    {
      "constant": false,
      "inputs": [
        {
          "name": "_name",
          "type": "string"
        },
        {
          "name": "_wallet",
          "type": "address"
        }
      ],
      "name": "addUniversity",
      "outputs": [],
      "payable": false,
      "stateMutability": "nonpayable",
      "type": "function"
    },
    {
      "constant": true,
      "inputs": [],
      "name": "getUniversityName",
      "outputs": [
        {
          "name": "",
          "type": "string"
        }
      ],
      "payable": false,
      "stateMutability": "view",
      "type": "function"
    },
    {
      "constant": false,
      "inputs": [
        {
          "name": "_studentid",
          "type": "string"
        },
        {
          "name": "name",
          "type": "string"
        },
        {
          "name": "surname",
          "type": "string"
        },
        {
          "name": "_wallet",
          "type": "address"
        }
      ],
      "name": "addStudent",
      "outputs": [],
      "payable": false,
      "stateMutability": "nonpayable",
      "type": "function"
    },
    {
      "constant": true,
      "inputs": [
        {
          "name": "studentwallet",
          "type": "address"
        }
      ],
      "name": "getStudentNumber",
      "outputs": [
        {
          "name": "",
          "type": "string"
        }
      ],
      "payable": false,
      "stateMutability": "view",
      "type": "function"
    },
    {
      "constant": false,
      "inputs": [
        {
          "name": "studentid",
          "type": "string"
        },
        {
          "name": "degreename",
          "type": "string"
        },
        {
          "name": "degreetype",
          "type": "string"
        },
        {
          "name": "degreemajor",
          "type": "string"
        }
      ],
      "name": "requestDocument",
      "outputs": [],
      "payable": false,
      "stateMutability": "nonpayable",
      "type": "function"
    }
  ],
  "bytecode": "0x60806040523480156200001157600080fd5b5060405160208062001723833981018060405260208110156200003357600080fd5b8101908080519060200190929190505050806000806101000a81548173ffffffffffffffffffffffffffffffffffffffff021916908373ffffffffffffffffffffffffffffffffffffffff160217905550600060038190555060006005819055506000600681905550620000f76040518060400160405280601781526020017f5374656c6c656e626f73636820556e69766572736974790000000000000000008152507344240c1bff58f9cb6f97537de1e9c29360c515cb620001c560201b60201c565b620001be6040518060400160405280600881526020017f31393032363637320000000000000000000000000000000000000000000000008152506040518060400160405280600681526020017f416d616e646100000000000000000000000000000000000000000000000000008152506040518060400160405280600681526020017f5069657263650000000000000000000000000000000000000000000000000000815250734676c1e58281e9bbc72bd12028e8b6cd2bce67576200027160201b60201c565b5062000466565b60405180604001604052808381526020018273ffffffffffffffffffffffffffffffffffffffff168152506001600082015181600001908051906020019062000210929190620003b7565b5060208201518160010160006101000a81548173ffffffffffffffffffffffffffffffffffffffff021916908373ffffffffffffffffffffffffffffffffffffffff1602179055509050506003600081548092919060010191905055505050565b6040518060a001604052808581526020018481526020018381526020018273ffffffffffffffffffffffffffffffffffffffff1681526020016000815250600760008373ffffffffffffffffffffffffffffffffffffffff1673ffffffffffffffffffffffffffffffffffffffff16815260200190815260200160002060008201518160000190805190602001906200030c929190620003b7565b5060208201518160010190805190602001906200032b929190620003b7565b5060408201518160020190805190602001906200034a929190620003b7565b5060608201518160030160006101000a81548173ffffffffffffffffffffffffffffffffffffffff021916908373ffffffffffffffffffffffffffffffffffffffff1602179055506080820151816004015590505060066000815480929190600101919050555050505050565b828054600181600116156101000203166002900490600052602060002090601f016020900481019282601f10620003fa57805160ff19168380011785556200042b565b828001600101855582156200042b579182015b828111156200042a5782518255916020019190600101906200040d565b5b5090506200043a91906200043e565b5090565b6200046391905b808211156200045f57600081600090555060010162000445565b5090565b90565b6112ad80620004766000396000f3fe608060405234801561001057600080fd5b506004361061007d5760003560e01c80638c2fd0481161005b5780638c2fd048146103cb57806396e3f809146104155780639b30f0dc14610695578063a6c807a9146107705761007d565b80630fcd73161461008257806339f979c41461013f5780636af6a039146101c2575b600080fd5b6100c46004803603602081101561009857600080fd5b81019080803573ffffffffffffffffffffffffffffffffffffffff16906020019092919050505061093f565b6040518080602001828103825283818151815260200191508051906020019080838360005b838110156101045780820151818401526020810190506100e9565b50505050905090810190601f1680156101315780820380516001836020036101000a031916815260200191505b509250505060405180910390f35b610147610be8565b6040518080602001828103825283818151815260200191508051906020019080838360005b8381101561018757808201518184015260208101905061016c565b50505050905090810190601f1680156101b45780820380516001836020036101000a031916815260200191505b509250505060405180910390f35b6103c9600480360360808110156101d857600080fd5b81019080803590602001906401000000008111156101f557600080fd5b82018360208201111561020757600080fd5b8035906020019184600183028401116401000000008311171561022957600080fd5b91908080601f016020809104026020016040519081016040528093929190818152602001838380828437600081840152601f19601f8201169050808301925050505050505091929192908035906020019064010000000081111561028c57600080fd5b82018360208201111561029e57600080fd5b803590602001918460018302840111640100000000831117156102c057600080fd5b91908080601f016020809104026020016040519081016040528093929190818152602001838380828437600081840152601f19601f8201169050808301925050505050505091929192908035906020019064010000000081111561032357600080fd5b82018360208201111561033557600080fd5b8035906020019184600183028401116401000000008311171561035757600080fd5b91908080601f016020809104026020016040519081016040528093929190818152602001838380828437600081840152601f19601f820116905080830192505050505050509192919290803573ffffffffffffffffffffffffffffffffffffffff169060200190929190505050610c8d565b005b6103d3610dcd565b604051808273ffffffffffffffffffffffffffffffffffffffff1673ffffffffffffffffffffffffffffffffffffffff16815260200191505060405180910390f35b6106936004803603608081101561042b57600080fd5b810190808035906020019064010000000081111561044857600080fd5b82018360208201111561045a57600080fd5b8035906020019184600183028401116401000000008311171561047c57600080fd5b91908080601f016020809104026020016040519081016040528093929190818152602001838380828437600081840152601f19601f820116905080830192505050505050509192919290803590602001906401000000008111156104df57600080fd5b8201836020820111156104f157600080fd5b8035906020019184600183028401116401000000008311171561051357600080fd5b91908080601f016020809104026020016040519081016040528093929190818152602001838380828437600081840152601f19601f8201169050808301925050505050505091929192908035906020019064010000000081111561057657600080fd5b82018360208201111561058857600080fd5b803590602001918460018302840111640100000000831117156105aa57600080fd5b91908080601f016020809104026020016040519081016040528093929190818152602001838380828437600081840152601f19601f8201169050808301925050505050505091929192908035906020019064010000000081111561060d57600080fd5b82018360208201111561061f57600080fd5b8035906020019184600183028401116401000000008311171561064157600080fd5b91908080601f016020809104026020016040519081016040528093929190818152602001838380828437600081840152601f19601f820116905080830192505050505050509192919290505050610df2565b005b61076e600480360360408110156106ab57600080fd5b81019080803590602001906401000000008111156106c857600080fd5b8201836020820111156106da57600080fd5b803590602001918460018302840111640100000000831117156106fc57600080fd5b91908080601f016020809104026020016040519081016040528093929190818152602001838380828437600081840152601f19601f820116905080830192505050505050509192919290803573ffffffffffffffffffffffffffffffffffffffff169060200190929190505050610ecf565b005b6107b26004803603602081101561078657600080fd5b81019080803573ffffffffffffffffffffffffffffffffffffffff169060200190929190505050610f79565b604051808060200180602001806020018673ffffffffffffffffffffffffffffffffffffffff1673ffffffffffffffffffffffffffffffffffffffff168152602001858152602001848103845289818151815260200191508051906020019080838360005b83811015610832578082015181840152602081019050610817565b50505050905090810190601f16801561085f5780820380516001836020036101000a031916815260200191505b50848103835288818151815260200191508051906020019080838360005b8381101561089857808201518184015260208101905061087d565b50505050905090810190601f1680156108c55780820380516001836020036101000a031916815260200191505b50848103825287818151815260200191508051906020019080838360005b838110156108fe5780820151818401526020810190506108e3565b50505050905090810190601f16801561092b5780820380516001836020036101000a031916815260200191505b509850505050505050505060405180910390f35b6060610949611197565b600760008473ffffffffffffffffffffffffffffffffffffffff1673ffffffffffffffffffffffffffffffffffffffff1681526020019081526020016000206040518060a0016040529081600082018054600181600116156101000203166002900480601f016020809104026020016040519081016040528092919081815260200182805460018160011615610100020316600290048015610a2c5780601f10610a0157610100808354040283529160200191610a2c565b820191906000526020600020905b815481529060010190602001808311610a0f57829003601f168201915b50505050508152602001600182018054600181600116156101000203166002900480601f016020809104026020016040519081016040528092919081815260200182805460018160011615610100020316600290048015610ace5780601f10610aa357610100808354040283529160200191610ace565b820191906000526020600020905b815481529060010190602001808311610ab157829003601f168201915b50505050508152602001600282018054600181600116156101000203166002900480601f016020809104026020016040519081016040528092919081815260200182805460018160011615610100020316600290048015610b705780601f10610b4557610100808354040283529160200191610b70565b820191906000526020600020905b815481529060010190602001808311610b5357829003601f168201915b505050505081526020016003820160009054906101000a900473ffffffffffffffffffffffffffffffffffffffff1673ffffffffffffffffffffffffffffffffffffffff1673ffffffffffffffffffffffffffffffffffffffff16815260200160048201548152505090508060200151915050919050565b606060016000018054600181600116156101000203166002900480601f016020809104026020016040519081016040528092919081815260200182805460018160011615610100020316600290048015610c835780601f10610c5857610100808354040283529160200191610c83565b820191906000526020600020905b815481529060010190602001808311610c6657829003601f168201915b5050505050905090565b6040518060a001604052808581526020018481526020018381526020018273ffffffffffffffffffffffffffffffffffffffff1681526020016000815250600760008373ffffffffffffffffffffffffffffffffffffffff1673ffffffffffffffffffffffffffffffffffffffff1681526020019081526020016000206000820151816000019080519060200190610d269291906111dc565b506020820151816001019080519060200190610d439291906111dc565b506040820151816002019080519060200190610d609291906111dc565b5060608201518160030160006101000a81548173ffffffffffffffffffffffffffffffffffffffff021916908373ffffffffffffffffffffffffffffffffffffffff1602179055506080820151816004015590505060066000815480929190600101919050555050505050565b6000809054906101000a900473ffffffffffffffffffffffffffffffffffffffff1681565b6004604051806080016040528086815260200185815260200184815260200183815250908060018154018082558091505090600182039060005260206000209060040201600090919290919091506000820151816000019080519060200190610e5c9291906111dc565b506020820151816001019080519060200190610e799291906111dc565b506040820151816002019080519060200190610e969291906111dc565b506060820151816003019080519060200190610eb39291906111dc565b5050505060056000815480929190600101919050555050505050565b60405180604001604052808381526020018273ffffffffffffffffffffffffffffffffffffffff1681525060016000820151816000019080519060200190610f189291906111dc565b5060208201518160010160006101000a81548173ffffffffffffffffffffffffffffffffffffffff021916908373ffffffffffffffffffffffffffffffffffffffff1602179055509050506003600081548092919060010191905055505050565b6007602052806000526040600020600091509050806000018054600181600116156101000203166002900480601f0160208091040260200160405190810160405280929190818152602001828054600181600116156101000203166002900480156110255780601f10610ffa57610100808354040283529160200191611025565b820191906000526020600020905b81548152906001019060200180831161100857829003601f168201915b505050505090806001018054600181600116156101000203166002900480601f0160208091040260200160405190810160405280929190818152602001828054600181600116156101000203166002900480156110c35780601f10611098576101008083540402835291602001916110c3565b820191906000526020600020905b8154815290600101906020018083116110a657829003601f168201915b505050505090806002018054600181600116156101000203166002900480601f0160208091040260200160405190810160405280929190818152602001828054600181600116156101000203166002900480156111615780601f1061113657610100808354040283529160200191611161565b820191906000526020600020905b81548152906001019060200180831161114457829003601f168201915b5050505050908060030160009054906101000a900473ffffffffffffffffffffffffffffffffffffffff16908060040154905085565b6040518060a00160405280606081526020016060815260200160608152602001600073ffffffffffffffffffffffffffffffffffffffff168152602001600081525090565b828054600181600116156101000203166002900490600052602060002090601f016020900481019282601f1061121d57805160ff191683800117855561124b565b8280016001018555821561124b579182015b8281111561124a57825182559160200191906001019061122f565b5b509050611258919061125c565b5090565b61127e91905b8082111561127a576000816000905550600101611262565b5090565b9056fea165627a7a72305820019c743c1b8b695f0ac1869877b99a17239d388afe284b05a7b61123dd524c090029",
  "source": "pragma solidity ^0.5.0;\nimport \"./Degree.sol\";\n\n// contract CompanyVerifier {\n//     Company[] companies;\n\n//     struct Company{\n//         string name;\n//         address wallet;\n//     }\n\n//      constructor() public{\n//         addCompany(\"Amazon\", 0xAC6C7566d5a612483407A1bd14F4C1B6654Ad2e5);\n//      }\n\n//     function addCompany(string memory name, address _wallet) public {\n//         companies.push(Company(name, _wallet));\n//     }\n// }\n\ncontract UniversityDegreeAuth {\n\n    Degree public degreeGenerator;\n    University university;\n    //CompanyVerifier public companyVerifier;\n    //mapping(address => University) universities;\n    uint universityCount;\n    Request[] requests;\n    uint requestCount;\n    uint studentCount;\n\n    struct University {\n        string name;\n        address universitywallet;\n    }\n\n    struct Student {\n        string studentid;\n        string name;\n        string surname;\n        address walletaddress;\n        uint degreeTokenCount;\n        mapping(uint => uint) degreeTokenIds;\n    }\n\n    struct Request {\n        string studentid;\n        string degreename;\n        string degreetype;\n        string degreemajor;\n    }\n\n   mapping(address => Student) public students;\n\n    constructor (Degree _degree ) public {\n        degreeGenerator = _degree;\n        universityCount = 0;\n        requestCount = 0;\n        studentCount = 0;\n        //companyVerifier = _cv;\n        addUniversity(\"Stellenbosch University\", 0x44240c1bfF58F9cB6F97537de1E9C29360c515cb);\n        addStudent(\"19026672\", \"Amanda\", \"Pierce\", 0x4676c1e58281E9bbc72bd12028e8b6cd2BCe6757);\n    }\n\n    function addUniversity(string memory _name, address _wallet) public {\n        university = University(_name, _wallet);\n        universityCount++;\n    }\n\n    function getUniversityName() public view returns (string memory){\n        return university.name;\n    }\n\n    function addStudent(string memory _studentid, string memory name, string memory surname, address _wallet) public {\n        //bytes32 _id = keccak256(abi.encodePacked(_studentid));\n        students[_wallet] = Student(_studentid, name, surname, _wallet, 0);\n        studentCount++;\n    }\n\n     function getStudentNumber(address studentwallet) public view returns (string memory) {\n        Student memory student = students[studentwallet];\n        //bytes32 _id = keccak256(abi.encodePacked(_studentid));\n        return  student.name;\n    }\n\n    // function getStudentName(string memory _studentid) public view returns (string memory) {\n    //     bytes32 _id = keccak256(abi.encodePacked(_studentid));\n    //     return  students[_id].name;\n    // }\n\n    function requestDocument(string memory studentid, string memory degreename, string memory degreetype, string memory degreemajor) public {\n        requests.push(Request(studentid, degreename, degreetype, degreemajor));\n        requestCount++;\n    }\n\n    // function handleRequest(string memory studentid, string memory ipfshash, string memory uniqueKey) public {\n    //     Request memory request;\n    //     for(uint i = 0; i < requestCount; i++)\n    //     {\n    //         if (keccak256(abi.encodePacked((requests[i].studentid))) == keccak256(abi.encodePacked((studentid))))\n    //         {\n    //             request = requests[i];\n    //             break;\n    //         }\n    //     }\n    //     addDegree(studentid, request.degreename, request.degreetype, request.degreemajor, ipfshash, uniqueKey);\n    // }\n\n    // function addDegree\n    // (\n    //     string memory studentid,\n    //     string memory degreename,\n    //     string memory degreetype,\n    //     string memory degreemajor,\n    //     string memory ipfshash,\n    //     string memory uniqueKey\n    // ) public\n    // {\n    //     Student storage student = students[keccak256(abi.encodePacked(studentid))];\n    //     address studentaddress = student.walletaddress;\n    //     uint _id = degreeGenerator.mint(studentaddress, studentid, degreename, degreetype, degreemajor, ipfshash, uniqueKey);\n    //     student.degreeTokenCount ++;\n    //     student.degreeTokenIds[student.degreeTokenCount] = _id;\n    // }\n\n    // function getDegreeInformation(\n    //     string memory degreename,\n    //     string memory degreetype,\n    //     string memory degreemajor) public view returns (string memory){\n    //     return degreeGenerator.getIpfsHash(degreename, degreetype, degreemajor);\n    // }\n\n    // function getTotalDegrees() public view returns(uint) {\n    //     return degreeGenerator.totalSupply();\n    // }\n\n    // function getIndexToken(uint idx) public view returns(uint) {\n    //     return degreeGenerator.tokenByIndex(idx);\n    // }\n}",
  "sourcePath": "/home/amanda/Documents/Amanda/Blockchain-Ethereum-master/contracts/UniversityDegreeAuth.sol",
  "compiler": {
    "name": "solc",
    "version": "0.5.8+commit.23d335f2.Emscripten.clang"
  },
  "schemaVersion": "3.0.16",
  "updatedAt": "2019-10-27T18:17:42.493Z",
  "devdoc": {
    "methods": {}
  },
  "userdoc": {
    "methods": {}
  }
}